{
  "_format": "hh-sol-artifact-1",
  "contractName": "SocialGraph",
  "sourceName": "contracts/connect.sol",
  "abi": [
    {
      "inputs": [],
      "stateMutability": "nonpayable",
      "type": "constructor"
    },
    {
      "inputs": [
        {
          "internalType": "address",
          "name": "sender",
          "type": "address"
        },
        {
          "internalType": "uint256",
          "name": "balance",
          "type": "uint256"
        },
        {
          "internalType": "uint256",
          "name": "needed",
          "type": "uint256"
        },
        {
          "internalType": "uint256",
          "name": "tokenId",
          "type": "uint256"
        }
      ],
      "name": "ERC1155InsufficientBalance",
      "type": "error"
    },
    {
      "inputs": [
        {
          "internalType": "address",
          "name": "approver",
          "type": "address"
        }
      ],
      "name": "ERC1155InvalidApprover",
      "type": "error"
    },
    {
      "inputs": [
        {
          "internalType": "uint256",
          "name": "idsLength",
          "type": "uint256"
        },
        {
          "internalType": "uint256",
          "name": "valuesLength",
          "type": "uint256"
        }
      ],
      "name": "ERC1155InvalidArrayLength",
      "type": "error"
    },
    {
      "inputs": [
        {
          "internalType": "address",
          "name": "operator",
          "type": "address"
        }
      ],
      "name": "ERC1155InvalidOperator",
      "type": "error"
    },
    {
      "inputs": [
        {
          "internalType": "address",
          "name": "receiver",
          "type": "address"
        }
      ],
      "name": "ERC1155InvalidReceiver",
      "type": "error"
    },
    {
      "inputs": [
        {
          "internalType": "address",
          "name": "sender",
          "type": "address"
        }
      ],
      "name": "ERC1155InvalidSender",
      "type": "error"
    },
    {
      "inputs": [
        {
          "internalType": "address",
          "name": "operator",
          "type": "address"
        },
        {
          "internalType": "address",
          "name": "owner",
          "type": "address"
        }
      ],
      "name": "ERC1155MissingApprovalForAll",
      "type": "error"
    },
    {
      "inputs": [
        {
          "internalType": "address",
          "name": "owner",
          "type": "address"
        }
      ],
      "name": "OwnableInvalidOwner",
      "type": "error"
    },
    {
      "inputs": [
        {
          "internalType": "address",
          "name": "account",
          "type": "address"
        }
      ],
      "name": "OwnableUnauthorizedAccount",
      "type": "error"
    },
    {
      "anonymous": false,
      "inputs": [
        {
          "indexed": true,
          "internalType": "address",
          "name": "account",
          "type": "address"
        },
        {
          "indexed": true,
          "internalType": "address",
          "name": "operator",
          "type": "address"
        },
        {
          "indexed": false,
          "internalType": "bool",
          "name": "approved",
          "type": "bool"
        }
      ],
      "name": "ApprovalForAll",
      "type": "event"
    },
    {
      "anonymous": false,
      "inputs": [
        {
          "indexed": true,
          "internalType": "address",
          "name": "userA",
          "type": "address"
        },
        {
          "indexed": true,
          "internalType": "address",
          "name": "userB",
          "type": "address"
        },
        {
          "indexed": false,
          "internalType": "uint256",
          "name": "amount",
          "type": "uint256"
        }
      ],
      "name": "ConnectionMade",
      "type": "event"
    },
    {
      "anonymous": false,
      "inputs": [
        {
          "indexed": true,
          "internalType": "address",
          "name": "previousOwner",
          "type": "address"
        },
        {
          "indexed": true,
          "internalType": "address",
          "name": "newOwner",
          "type": "address"
        }
      ],
      "name": "OwnershipTransferred",
      "type": "event"
    },
    {
      "anonymous": false,
      "inputs": [
        {
          "indexed": true,
          "internalType": "address",
          "name": "operator",
          "type": "address"
        },
        {
          "indexed": true,
          "internalType": "address",
          "name": "from",
          "type": "address"
        },
        {
          "indexed": true,
          "internalType": "address",
          "name": "to",
          "type": "address"
        },
        {
          "indexed": false,
          "internalType": "uint256[]",
          "name": "ids",
          "type": "uint256[]"
        },
        {
          "indexed": false,
          "internalType": "uint256[]",
          "name": "values",
          "type": "uint256[]"
        }
      ],
      "name": "TransferBatch",
      "type": "event"
    },
    {
      "anonymous": false,
      "inputs": [
        {
          "indexed": true,
          "internalType": "address",
          "name": "operator",
          "type": "address"
        },
        {
          "indexed": true,
          "internalType": "address",
          "name": "from",
          "type": "address"
        },
        {
          "indexed": true,
          "internalType": "address",
          "name": "to",
          "type": "address"
        },
        {
          "indexed": false,
          "internalType": "uint256",
          "name": "id",
          "type": "uint256"
        },
        {
          "indexed": false,
          "internalType": "uint256",
          "name": "value",
          "type": "uint256"
        }
      ],
      "name": "TransferSingle",
      "type": "event"
    },
    {
      "anonymous": false,
      "inputs": [
        {
          "indexed": false,
          "internalType": "string",
          "name": "value",
          "type": "string"
        },
        {
          "indexed": true,
          "internalType": "uint256",
          "name": "id",
          "type": "uint256"
        }
      ],
      "name": "URI",
      "type": "event"
    },
    {
      "anonymous": false,
      "inputs": [
        {
          "indexed": true,
          "internalType": "address",
          "name": "user",
          "type": "address"
        },
        {
          "indexed": true,
          "internalType": "uint256",
          "name": "tokenId",
          "type": "uint256"
        }
      ],
      "name": "UserTokenCreated",
      "type": "event"
    },
    {
      "inputs": [],
      "name": "INITIAL_SUPPLY",
      "outputs": [
        {
          "internalType": "uint256",
          "name": "",
          "type": "uint256"
        }
      ],
      "stateMutability": "view",
      "type": "function"
    },
    {
      "inputs": [
        {
          "internalType": "address",
          "name": "account",
          "type": "address"
        },
        {
          "internalType": "uint256",
          "name": "id",
          "type": "uint256"
        }
      ],
      "name": "balanceOf",
      "outputs": [
        {
          "internalType": "uint256",
          "name": "",
          "type": "uint256"
        }
      ],
      "stateMutability": "view",
      "type": "function"
    },
    {
      "inputs": [
        {
          "internalType": "address[]",
          "name": "accounts",
          "type": "address[]"
        },
        {
          "internalType": "uint256[]",
          "name": "ids",
          "type": "uint256[]"
        }
      ],
      "name": "balanceOfBatch",
      "outputs": [
        {
          "internalType": "uint256[]",
          "name": "",
          "type": "uint256[]"
        }
      ],
      "stateMutability": "view",
      "type": "function"
    },
    {
      "inputs": [
        {
          "internalType": "address",
          "name": "account",
          "type": "address"
        },
        {
          "internalType": "address",
          "name": "operator",
          "type": "address"
        }
      ],
      "name": "isApprovedForAll",
      "outputs": [
        {
          "internalType": "bool",
          "name": "",
          "type": "bool"
        }
      ],
      "stateMutability": "view",
      "type": "function"
    },
    {
      "inputs": [],
      "name": "owner",
      "outputs": [
        {
          "internalType": "address",
          "name": "",
          "type": "address"
        }
      ],
      "stateMutability": "view",
      "type": "function"
    },
    {
      "inputs": [],
      "name": "registerAndMint",
      "outputs": [],
      "stateMutability": "nonpayable",
      "type": "function"
    },
    {
      "inputs": [],
      "name": "renounceOwnership",
      "outputs": [],
      "stateMutability": "nonpayable",
      "type": "function"
    },
    {
      "inputs": [
        {
          "internalType": "address",
          "name": "from",
          "type": "address"
        },
        {
          "internalType": "address",
          "name": "to",
          "type": "address"
        },
        {
          "internalType": "uint256[]",
          "name": "ids",
          "type": "uint256[]"
        },
        {
          "internalType": "uint256[]",
          "name": "values",
          "type": "uint256[]"
        },
        {
          "internalType": "bytes",
          "name": "data",
          "type": "bytes"
        }
      ],
      "name": "safeBatchTransferFrom",
      "outputs": [],
      "stateMutability": "nonpayable",
      "type": "function"
    },
    {
      "inputs": [
        {
          "internalType": "address",
          "name": "from",
          "type": "address"
        },
        {
          "internalType": "address",
          "name": "to",
          "type": "address"
        },
        {
          "internalType": "uint256",
          "name": "id",
          "type": "uint256"
        },
        {
          "internalType": "uint256",
          "name": "value",
          "type": "uint256"
        },
        {
          "internalType": "bytes",
          "name": "data",
          "type": "bytes"
        }
      ],
      "name": "safeTransferFrom",
      "outputs": [],
      "stateMutability": "nonpayable",
      "type": "function"
    },
    {
      "inputs": [
        {
          "internalType": "address",
          "name": "operator",
          "type": "address"
        },
        {
          "internalType": "bool",
          "name": "approved",
          "type": "bool"
        }
      ],
      "name": "setApprovalForAll",
      "outputs": [],
      "stateMutability": "nonpayable",
      "type": "function"
    },
    {
      "inputs": [
        {
          "internalType": "bytes4",
          "name": "interfaceId",
          "type": "bytes4"
        }
      ],
      "name": "supportsInterface",
      "outputs": [
        {
          "internalType": "bool",
          "name": "",
          "type": "bool"
        }
      ],
      "stateMutability": "view",
      "type": "function"
    },
    {
      "inputs": [
        {
          "internalType": "address",
          "name": "_otherUser",
          "type": "address"
        },
        {
          "internalType": "uint256",
          "name": "_amount",
          "type": "uint256"
        }
      ],
      "name": "swap",
      "outputs": [],
      "stateMutability": "nonpayable",
      "type": "function"
    },
    {
      "inputs": [
        {
          "internalType": "uint256",
          "name": "",
          "type": "uint256"
        }
      ],
      "name": "tokenIdToUser",
      "outputs": [
        {
          "internalType": "address",
          "name": "",
          "type": "address"
        }
      ],
      "stateMutability": "view",
      "type": "function"
    },
    {
      "inputs": [
        {
          "internalType": "address",
          "name": "newOwner",
          "type": "address"
        }
      ],
      "name": "transferOwnership",
      "outputs": [],
      "stateMutability": "nonpayable",
      "type": "function"
    },
    {
      "inputs": [
        {
          "internalType": "uint256",
          "name": "",
          "type": "uint256"
        }
      ],
      "name": "uri",
      "outputs": [
        {
          "internalType": "string",
          "name": "",
          "type": "string"
        }
      ],
      "stateMutability": "view",
      "type": "function"
    },
    {
      "inputs": [
        {
          "internalType": "address",
          "name": "",
          "type": "address"
        }
      ],
      "name": "userToTokenId",
      "outputs": [
        {
          "internalType": "uint256",
          "name": "",
          "type": "uint256"
        }
      ],
      "stateMutability": "view",
      "type": "function"
    }
  ],
  "bytecode": "0x608060405234801561001057600080fd5b5033604051806060016040528060238152602001611a826023913961003481610072565b506001600160a01b03811661006357604051631e4fbdf760e01b81526000600482015260240160405180910390fd5b61006c81610082565b50610231565b600261007e8282610173565b5050565b600380546001600160a01b038381166001600160a01b0319831681179093556040519116919082907f8be0079c531659141344cd1fd0a4f28419497f9722a3daafe3b4186f6b6457e090600090a35050565b634e487b7160e01b600052604160045260246000fd5b600181811c908216806100fe57607f821691505b60208210810361011e57634e487b7160e01b600052602260045260246000fd5b50919050565b601f82111561016e57806000526020600020601f840160051c8101602085101561014b5750805b601f840160051c820191505b8181101561016b5760008155600101610157565b50505b505050565b81516001600160401b0381111561018c5761018c6100d4565b6101a08161019a84546100ea565b84610124565b6020601f8211600181146101d457600083156101bc5750848201515b600019600385901b1c1916600184901b17845561016b565b600084815260208120601f198516915b8281101561020457878501518255602094850194600190920191016101e4565b50848210156102225786840151600019600387901b60f8161c191681555b50505050600190811b01905550565b611842806102406000396000f3fe608060405234801561001057600080fd5b50600436106100ff5760003560e01c8063a22cb46511610097578063e985e9c511610066578063e985e9c51461022f578063f242432a14610242578063f2fde38b14610255578063fd764f221461026857600080fd5b8063a22cb465146101e1578063af24b07b146101f4578063d004f0f714610214578063e8b24b541461022757600080fd5b80632ff2e9dc116100d35780632ff2e9dc146101825780634e1273f414610194578063715018a6146101b45780638da5cb5b146101bc57600080fd5b8062fdd58e1461010457806301ffc9a71461012a5780630e89341c1461014d5780632eb2c2d61461016d575b600080fd5b6101176101123660046111de565b610291565b6040519081526020015b60405180910390f35b61013d61013836600461121e565b6102b9565b6040519015158152602001610121565b61016061015b366004611242565b610309565b60405161012191906112a1565b61018061017b3660046113fc565b61039d565b005b6101176a115eec47f6cf7e3500000081565b6101a76101a23660046114b2565b610409565b60405161012191906115b7565b6101806104d6565b6003546001600160a01b03165b6040516001600160a01b039091168152602001610121565b6101806101ef3660046115ca565b6104ea565b610117610202366004611606565b60056020526000908152604090205481565b6101806102223660046111de565b6104f9565b610180610928565b61013d61023d366004611621565b610a20565b610180610250366004611654565b610a4e565b610180610263366004611606565b610aad565b6101c9610276366004611242565b6006602052600090815260409020546001600160a01b031681565b6000818152602081815260408083206001600160a01b03861684529091529020545b92915050565b60006001600160e01b03198216636cdb3d1360e11b14806102ea57506001600160e01b031982166303a24d0760e21b145b806102b357506301ffc9a760e01b6001600160e01b03198316146102b3565b606060028054610318906116ad565b80601f0160208091040260200160405190810160405280929190818152602001828054610344906116ad565b80156103915780601f1061036657610100808354040283529160200191610391565b820191906000526020600020905b81548152906001019060200180831161037457829003601f168201915b50505050509050919050565b336001600160a01b03861681148015906103be57506103bc8682610a20565b155b156103f45760405163711bec9160e11b81526001600160a01b038083166004830152871660248201526044015b60405180910390fd5b6104018686868686610aeb565b505050505050565b6060815183511461043a5781518351604051635b05999160e01b8152600481019290925260248201526044016103eb565b6000835167ffffffffffffffff811115610456576104566112b4565b60405190808252806020026020018201604052801561047f578160200160208202803683370190505b50905060005b84518110156104ce576020808202860101516104a990602080840287010151610291565b8282815181106104bb576104bb6116e7565b6020908102919091010152600101610485565b509392505050565b6104de610b52565b6104e86000610b7f565b565b6104f5338383610bd1565b5050565b336001600160a01b0383166105605760405162461bcd60e51b815260206004820152602760248201527f536f6369616c47726170683a2053776170207769746820746865207a65726f206044820152666164647265737360c81b60648201526084016103eb565b806001600160a01b0316836001600160a01b0316036105d05760405162461bcd60e51b815260206004820152602660248201527f536f6369616c47726170683a2043616e6e6f742073776170207769746820796f6044820152653ab939b2b63360d11b60648201526084016103eb565b600082116106365760405162461bcd60e51b815260206004820152602d60248201527f536f6369616c47726170683a20416d6f756e74206d757374206265206772656160448201526c746572207468616e207a65726f60981b60648201526084016103eb565b6001600160a01b03808216600090815260056020526040808220549286168252812054908290036106b55760405162461bcd60e51b815260206004820152602360248201527f536f6369616c47726170683a20596f7520617265206e6f7420726567697374656044820152621c995960ea1b60648201526084016103eb565b8060000361071b5760405162461bcd60e51b815260206004820152602d60248201527f536f6369616c47726170683a20546865206f746865722075736572206973206e60448201526c1bdd081c9959da5cdd195c9959609a1b60648201526084016103eb565b6107258330610a20565b801561073657506107368530610a20565b6107ba5760405162461bcd60e51b815260206004820152604960248201527f536f6369616c47726170683a20426f7468207573657273206d7573742061707060448201527f726f7665207468697320636f6e747261637420746f206d616e61676520746865606482015268697220746f6b656e7360b81b608482015260a4016103eb565b836107c58484610291565b10156108265760405162461bcd60e51b815260206004820152602a60248201527f536f6369616c47726170683a20596f75206861766520696e73756666696369656044820152696e742062616c616e636560b01b60648201526084016103eb565b836108318683610291565b101561089c5760405162461bcd60e51b815260206004820152603460248201527f536f6369616c47726170683a20546865206f7468657220757365722068617320604482015273696e73756666696369656e742062616c616e636560601b60648201526084016103eb565b6108b88386848760405180602001604052806000815250610c67565b6108d48584838760405180602001604052806000815250610c67565b846001600160a01b0316836001600160a01b03167f1b2b13b519507cc21f94ff37d8c20336899f6143c4309028b86bd4710373f3678660405161091991815260200190565b60405180910390a35050505050565b33600090815260056020526040902054156109935760405162461bcd60e51b815260206004820152602560248201527f536f6369616c47726170683a20596f7520616c726561647920686176652061206044820152643a37b5b2b760d91b60648201526084016103eb565b60048054600101908190553360008181526005602090815260408083208590558483526006825280832080546001600160a01b03191685179055805191820190529081526109f0919083906a115eec47f6cf7e3500000090610cf5565b604051819033907f8e710e4b654c2436e9cda63f412c99168191d151a5eff4a5b37723bf5db4de7d90600090a350565b6001600160a01b03918216600090815260016020908152604080832093909416825291909152205460ff1690565b336001600160a01b0386168114801590610a6f5750610a6d8682610a20565b155b15610aa05760405163711bec9160e11b81526001600160a01b038083166004830152871660248201526044016103eb565b6104018686868686610c67565b610ab5610b52565b6001600160a01b038116610adf57604051631e4fbdf760e01b8152600060048201526024016103eb565b610ae881610b7f565b50565b6001600160a01b038416610b1557604051632bfa23e760e11b8152600060048201526024016103eb565b6001600160a01b038516610b3e57604051626a0d4560e21b8152600060048201526024016103eb565b610b4b8585858585610d4e565b5050505050565b6003546001600160a01b031633146104e85760405163118cdaa760e01b81523360048201526024016103eb565b600380546001600160a01b038381166001600160a01b0319831681179093556040519116919082907f8be0079c531659141344cd1fd0a4f28419497f9722a3daafe3b4186f6b6457e090600090a35050565b6001600160a01b038216610bfa5760405162ced3e160e81b8152600060048201526024016103eb565b6001600160a01b03838116600081815260016020908152604080832094871680845294825291829020805460ff191686151590811790915591519182527f17307eab39ab6107e8899845ad3d59bd9653f200f220920489ca2b5937696c31910160405180910390a3505050565b6001600160a01b038416610c9157604051632bfa23e760e11b8152600060048201526024016103eb565b6001600160a01b038516610cba57604051626a0d4560e21b8152600060048201526024016103eb565b60408051600180825260208201869052818301908152606082018590526080820190925290610cec8787848487610d4e565b50505050505050565b6001600160a01b038416610d1f57604051632bfa23e760e11b8152600060048201526024016103eb565b604080516001808252602082018690528183019081526060820185905260808201909252906104016000878484875b610d5a85858585610da1565b6001600160a01b03841615610b4b5782513390600103610d935760208481015190840151610d8c838989858589610fb5565b5050610401565b6104018187878787876110d9565b8051825114610dd05781518151604051635b05999160e01b8152600481019290925260248201526044016103eb565b3360005b8351811015610ed6576020818102858101820151908501909101516001600160a01b03881615610e87576000828152602081815260408083206001600160a01b038c16845290915290205481811015610e60576040516303dee4c560e01b81526001600160a01b038a1660048201526024810182905260448101839052606481018490526084016103eb565b6000838152602081815260408083206001600160a01b038d16845290915290209082900390555b6001600160a01b03871615610ecc576000828152602081815260408083206001600160a01b038b16845290915281208054839290610ec69084906116fd565b90915550505b5050600101610dd4565b508251600103610f575760208301516000906020840151909150856001600160a01b0316876001600160a01b0316846001600160a01b03167fc3d58168c5ae7397731d063d5bbf3d657854427343f4c083240f7aacaa2d0f628585604051610f48929190918252602082015260400190565b60405180910390a45050610b4b565b836001600160a01b0316856001600160a01b0316826001600160a01b03167f4a39dc06d4c0dbc64b70af90fd698a233a518aa5d07e595d983b8c0526c8f7fb8686604051610fa692919061171e565b60405180910390a45050505050565b6001600160a01b0384163b156104015760405163f23a6e6160e01b81526001600160a01b0385169063f23a6e6190610ff9908990899088908890889060040161174c565b6020604051808303816000875af1925050508015611034575060408051601f3d908101601f1916820190925261103191810190611791565b60015b61109d573d808015611062576040519150601f19603f3d011682016040523d82523d6000602084013e611067565b606091505b50805160000361109557604051632bfa23e760e11b81526001600160a01b03861660048201526024016103eb565b805181602001fd5b6001600160e01b0319811663f23a6e6160e01b14610cec57604051632bfa23e760e11b81526001600160a01b03861660048201526024016103eb565b6001600160a01b0384163b156104015760405163bc197c8160e01b81526001600160a01b0385169063bc197c819061111d90899089908890889088906004016117ae565b6020604051808303816000875af1925050508015611158575060408051601f3d908101601f1916820190925261115591810190611791565b60015b611186573d808015611062576040519150601f19603f3d011682016040523d82523d6000602084013e611067565b6001600160e01b0319811663bc197c8160e01b14610cec57604051632bfa23e760e11b81526001600160a01b03861660048201526024016103eb565b80356001600160a01b03811681146111d957600080fd5b919050565b600080604083850312156111f157600080fd5b6111fa836111c2565b946020939093013593505050565b6001600160e01b031981168114610ae857600080fd5b60006020828403121561123057600080fd5b813561123b81611208565b9392505050565b60006020828403121561125457600080fd5b5035919050565b6000815180845260005b8181101561128157602081850181015186830182015201611265565b506000602082860101526020601f19601f83011685010191505092915050565b60208152600061123b602083018461125b565b634e487b7160e01b600052604160045260246000fd5b604051601f8201601f1916810167ffffffffffffffff811182821017156112f3576112f36112b4565b604052919050565b600067ffffffffffffffff821115611315576113156112b4565b5060051b60200190565b600082601f83011261133057600080fd5b813561134361133e826112fb565b6112ca565b8082825260208201915060208360051b86010192508583111561136557600080fd5b602085015b8381101561138257803583526020928301920161136a565b5095945050505050565b600082601f83011261139d57600080fd5b813567ffffffffffffffff8111156113b7576113b76112b4565b6113ca601f8201601f19166020016112ca565b8181528460208386010111156113df57600080fd5b816020850160208301376000918101602001919091529392505050565b600080600080600060a0868803121561141457600080fd5b61141d866111c2565b945061142b602087016111c2565b9350604086013567ffffffffffffffff81111561144757600080fd5b6114538882890161131f565b935050606086013567ffffffffffffffff81111561147057600080fd5b61147c8882890161131f565b925050608086013567ffffffffffffffff81111561149957600080fd5b6114a58882890161138c565b9150509295509295909350565b600080604083850312156114c557600080fd5b823567ffffffffffffffff8111156114dc57600080fd5b8301601f810185136114ed57600080fd5b80356114fb61133e826112fb565b8082825260208201915060208360051b85010192508783111561151d57600080fd5b6020840193505b8284101561154657611535846111c2565b825260209384019390910190611524565b9450505050602083013567ffffffffffffffff81111561156557600080fd5b6115718582860161131f565b9150509250929050565b600081518084526020840193506020830160005b828110156115ad57815186526020958601959091019060010161158f565b5093949350505050565b60208152600061123b602083018461157b565b600080604083850312156115dd57600080fd5b6115e6836111c2565b9150602083013580151581146115fb57600080fd5b809150509250929050565b60006020828403121561161857600080fd5b61123b826111c2565b6000806040838503121561163457600080fd5b61163d836111c2565b915061164b602084016111c2565b90509250929050565b600080600080600060a0868803121561166c57600080fd5b611675866111c2565b9450611683602087016111c2565b93506040860135925060608601359150608086013567ffffffffffffffff81111561149957600080fd5b600181811c908216806116c157607f821691505b6020821081036116e157634e487b7160e01b600052602260045260246000fd5b50919050565b634e487b7160e01b600052603260045260246000fd5b808201808211156102b357634e487b7160e01b600052601160045260246000fd5b604081526000611731604083018561157b565b8281036020840152611743818561157b565b95945050505050565b6001600160a01b03868116825285166020820152604081018490526060810183905260a0608082018190526000906117869083018461125b565b979650505050505050565b6000602082840312156117a357600080fd5b815161123b81611208565b6001600160a01b0386811682528516602082015260a0604082018190526000906117da9083018661157b565b82810360608401526117ec818661157b565b90508281036080840152611800818561125b565b9897505050505050505056fea2646970667358221220434a81ca63cf85c48835512e6500a63d098858f9e600cb31b6a6e8df19fc95b064736f6c634300081e003368747470733a2f2f796f75722d6d657461646174612d6170692f7b69647d2e6a736f6e",
  "linkReferences": {},
  "deployedLinkReferences": {}
}